:10000000FDC000001CC100001AC1000018C10000A2
:1000100016C1000014C1000012C1000010C1000090
:100020000EC100000CC100000AC1000008C10000A0
:100030000C94E80A9CC10000FAC2000025C300002D
:1000400050C300007BC30000A6C30000D1C3000062
:10005000FCC3000027C4000052C400007DC400009F
:10006000EEC00000ECC00000EAC00000E8C00000E4
:10007000E6C00000E4C00000E2C00000E0C00000F4
:10008000DEC00000DCC00000DAC00000D8C0000004
:10009000D6C00000D4C00000D2C00000D0C0000014
:1000A000CEC00000CCC00000CAC00000C8C0000024
:1000B000C6C00000C4C0000081C100003CC60000F2
:1000C00067C6000092C60000BDC60000E8C600007A
:1000D00013C700003EC7000069C7000094C70000B6
:1000E000BFC70000ACC00000AAC00000A8C000004C
:1000F000A6C00000A4C00000A2C00000A0C0000074
:100100009EC000009CC000009AC0000098C0000083
:1001100096C0000094C0000092C0000090C0000093
:100120008EC000008CC000008AC0000088C00000A3
:1001300086C000003EC4000069C4000094C40000F2
:10014000BFC40000EAC4000015C5000040C500009F
:100150006BC5000096C50000C1C5000070C000005E
:100160006EC000006CC000006AC0000068C00000E3
:1001700066C0000064C0000062C0000060C00000F3
:100180005EC000005CC000005AC0000058C0000003
:1001900056C0000054C0000052C0000050C0000013
:1001A0004EC000004CC000004AC0000048C0000023
:1001B00084C70000AFC70000DAC700000C94E40851
:1001C0000C9411090C943E093AC0000038C000009C
:1001D00036C0000034C0000032C0000030C0000053
:1001E0002EC000002CC000002AC0000028C0000063
:1001F00026C0000024C0000022C0000011241FBE41
:10020000CFEFCDBFDFE5DEBF00E00CBF10E2A0E026
:10021000B0E2ECE0F9E100E00BBF02C007900D9204
:10022000A030B107D9F720E2A0E0B0E201C01D92F2
:10023000A337B207E1F70E94410C0C94840CE0CE86
:10024000CF93DF93E0910020F0910120848183FF20
:1002500008C08860848383E0838386EF80930A20CC
:1002600083C0982F947131F083E083838FEF809364
:100270000A207AC086FF43C0C0E0D0E2AA81BB81D9
:100280008C819D8114962D913C911597821793072F
:100290006CF49C012F5F3F4F209304203093052086
:1002A000A80FB91F11968C9187835EC0809106209C
:1002B0009091072018962D913C91199782179307DA
:1002C000C8F420910820222321F086818160868352
:1002D0004BC016962D913C911797AC014F5F5F4F25
:1002E0004093062050930720D901A80FB91F8C9185
:1002F00087833AC083E0838310920A2035C0882325
:1003000084F5A0E0B0E21296CD91DC911397169699
:100310008D919C9117972885398582179307D8F47A
:100320006E817F819C012F5F3F4F20930620309389
:1003300007204781DB01A80FB91F4C938885998559
:100340002817390718F482E083830EC087E083837F
:1003500010920A2009C083E0838389EF80930A20EA
:1003600003C08BEF80930A20DF91CF9108951F92F5
:100370000F920FB60F9211240BB60F922F933F934B
:100380004F935F936F937F938F939F93AF93BF939D
:10039000EF93FF9355DFFF91EF91BF91AF919F9145
:1003A0008F917F916F915F914F913F912F910F901E
:1003B0000BBE0F900FBE0F901F9018951F920F92BB
:1003C0000FB60F9211240BB60F922F933F934F93BA
:1003D0005F936F937F938F939F93AF93BF93EF93AD
:1003E000FF932EDFFF91EF91BF91AF919F918F917E
:1003F0007F916F915F914F913F912F910F900BBE25
:100400000F900FBE0F901F901895FC0160837183B1
:1004100042835383148A158A168A178A108E089588
:10042000DC01ED91FC91119748634087ED91FC91BF
:10043000660F63870895FC01808D882351F0A081A9
:10044000B18182E019968C9386E0878B168A108E94
:10045000089581E0868B178AA081B18118968C91CE
:1004600018978B7F18968C93148A158A0190F081C7
:10047000E02D83E081870895FC01A081B181189669
:100480008C9118978B7F18968C93A081B1811A96C6
:100490008C911A9780641A968C9381E0878B168AC8
:1004A0000895CF93DF93FC01A081B18118968C91C0
:1004B0001897846018968C938489883008F5EF012A
:1004C0000190F081E02D84859C89FE01E90FF11DEA
:1004D0008483EA81FB8119958C898F5F8C8B888D51
:1004E000882349F0E881F98182E0818786E08F8B5B
:1004F0001E8A188E0DC0E881F98183E0818708C0CB
:10050000A081B18186E019968C9382E0878B168A50
:10051000DF91CF910895FC018589882371F0A08136
:10052000B1811A968C911A9784FF07C082E01996C0
:100530008C9381E0878B168A08958589883098F49A
:100540008589DF01A80FB11D1C968C91A081B18116
:100550001C968C9385898F5F858B0190F081E02DAF
:1005600083E081870895A081B18182E019968C9300
:10057000878B168A0895DC01ED91FC91228521FF7D
:1005800002C0C9CF08958DCF0895FC01A081B1812B
:100590001A968C9182FF06C0148A158A84E0878B94
:1005A000168A089583FF06C0148A158A83E0878B14
:1005B000168A0895282F2074982F9174913419F475
:1005C000CF0139CF0895222319F0CF0155CF0895D7
:1005D00088231CF4CF01CFCF089585E0878B168A3E
:1005E00008958FEF80937000809371008093720064
:1005F00080937300809374008093750080937600DD
:100600000895CF93DF931F92CDB7DEB79FB799833D
:10061000F8949981E82FF0E0E059FF4F60958081D0
:10062000682360839FBF0F90DF91CF9108951F9241
:100630000F920FB60F9211240BB60F922F933F9388
:100640004F935F936F937F938F939F93AF93BF93DA
:10065000EF93FF93E0915120F0915220309709F0F1
:100660001995FF91EF91BF91AF919F918F917F91DC
:100670006F915F914F913F912F910F900BBE0F9013
:100680000FBE0F901F9018951F920F920FB60F92EA
:1006900011240BB60F922F933F934F935F936F9359
:1006A0007F938F939F93AF93BF93EF93FF93E091CB
:1006B0004F20F0915020309709F01995FF91EF915C
:1006C000BF91AF919F918F917F916F915F914F916A
:1006D0003F912F910F900BBE0F900FBE0F901F9068
:1006E00018951F920F920FB60F9211240BB60F920E
:1006F0002F933F934F935F936F937F938F939F932A
:10070000AF93BF93EF93FF93E0914D20F0914E2074
:10071000309709F01995FF91EF91BF91AF919F919B
:100720008F917F916F915F914F913F912F910F909A
:100730000BBE0F900FBE0F901F9018951F920F9237
:100740000FB60F9211240BB60F922F933F934F9336
:100750005F936F937F938F939F93AF93BF93EF9329
:10076000FF93E0914B20F0914C20309709F01995C0
:10077000FF91EF91BF91AF919F918F917F916F9179
:100780005F914F913F912F910F900BBE0F900FBE35
:100790000F901F9018951F920F920FB60F92112471
:1007A0000BB60F922F933F934F935F936F937F936B
:1007B0008F939F93AF93BF93EF93FF93E091492063
:1007C000F0914A20309709F01995FF91EF91BF9170
:1007D000AF919F918F917F916F915F914F913F91D9
:1007E0002F910F900BBE0F900FBE0F901F9018957A
:1007F0001F920F920FB60F9211240BB60F922F93E8
:100800003F934F935F936F937F938F939F93AF9398
:10081000BF93EF93FF93E0914720F09148203097EA
:1008200009F01995FF91EF91BF91AF919F918F9131
:100830007F916F915F914F913F912F910F900BBEE0
:100840000F900FBE0F901F9018951F920F920FB62A
:100850000F9211240BB60F922F933F934F935F93F8
:100860006F937F938F939F93AF93BF93EF93FF9378
:10087000E0914520F0914620309709F01995FF91BD
:10088000EF91BF91AF919F918F917F916F915F9108
:100890004F913F912F910F900BBE0F900FBE0F9075
:1008A0001F9018951F920F920FB60F9211240BB63E
:1008B0000F922F933F934F935F936F937F938F93F9
:1008C0009F93AF93BF93EF93FF93E0914320F091F9
:1008D0004420309709F01995FF91EF91BF91AF91A6
:1008E0009F918F917F916F915F914F913F912F9148
:1008F0000F900BBE0F900FBE0F901F9018951F9278
:100900000F920FB60F9211240BB60F922F933F93B5
:100910004F935F936F937F938F939F93AF93BF9307
:10092000EF93FF93E0914120F0914220309709F03E
:100930001995FF91EF91BF91AF919F918F917F9109
:100940006F915F914F913F912F910F900BBE0F9040
:100950000FBE0F901F9018951F920F920FB60F9217
:1009600011240BB60F922F933F934F935F936F9386
:100970007F938F939F93AF93BF93EF93FF93E091F8
:100980003F20F0914020309709F01995FF91EF91A9
:10099000BF91AF919F918F917F916F915F914F9197
:1009A0003F912F910F900BBE0F900FBE0F901F9095
:1009B00018951F920F920FB60F9211240BB60F923B
:1009C0002F933F934F935F936F937F938F939F9357
:1009D000AF93BF93EF93FF93E0913D20F0913E20C2
:1009E000309709F01995FF91EF91BF91AF919F91C9
:1009F0008F917F916F915F914F913F912F910F90C8
:100A00000BBE0F900FBE0F901F9018951F920F9264
:100A10000FB60F9211240BB60F922F933F934F9363
:100A20005F936F937F938F939F93AF93BF93EF9356
:100A3000FF93E0913B20F0913C20309709F019950D
:100A4000FF91EF91BF91AF919F918F917F916F91A6
:100A50005F914F913F912F910F900BBE0F900FBE62
:100A60000F901F9018951F920F920FB60F9211249E
:100A70000BB60F922F933F934F935F936F937F9398
:100A80008F939F93AF93BF93EF93FF93E0913920A0
:100A9000F0913A20309709F01995FF91EF91BF91AD
:100AA000AF919F918F917F916F915F914F913F9106
:100AB0002F910F900BBE0F900FBE0F901F901895A7
:100AC0001F920F920FB60F9211240BB60F922F9315
:100AD0003F934F935F936F937F938F939F93AF93C6
:100AE000BF93EF93FF93E0913720F0913820309738
:100AF00009F01995FF91EF91BF91AF919F918F915F
:100B00007F916F915F914F913F912F910F900BBE0D
:100B10000F900FBE0F901F9018951F920F920FB657
:100B20000F9211240BB60F922F933F934F935F9325
:100B30006F937F938F939F93AF93BF93EF93FF93A5
:100B4000E0913520F0913620309709F01995FF910A
:100B5000EF91BF91AF919F918F917F916F915F9135
:100B60004F913F912F910F900BBE0F900FBE0F90A2
:100B70001F9018951F920F920FB60F9211240BB66B
:100B80000F922F933F934F935F936F937F938F9326
:100B90009F93AF93BF93EF93FF93E0913320F09136
:100BA0003420309709F01995FF91EF91BF91AF91E3
:100BB0009F918F917F916F915F914F913F912F9175
:100BC0000F900BBE0F900FBE0F901F9018951F92A5
:100BD0000F920FB60F9211240BB60F922F933F93E3
:100BE0004F935F936F937F938F939F93AF93BF9335
:100BF000EF93FF93E0913120F0913220309709F08C
:100C00001995FF91EF91BF91AF919F918F917F9136
:100C10006F915F914F913F912F910F900BBE0F906D
:100C20000FBE0F901F9018951F920F920FB60F9244
:100C300011240BB60F922F933F934F935F936F93B3
:100C40007F938F939F93AF93BF93EF93FF93E09125
:100C50002F20F0913020309709F01995FF91EF91F6
:100C6000BF91AF919F918F917F916F915F914F91C4
:100C70003F912F910F900BBE0F900FBE0F901F90C2
:100C800018951F920F920FB60F9211240BB60F9268
:100C90002F933F934F935F936F937F938F939F9384
:100CA000AF93BF93EF93FF93E0912D20F0912E200F
:100CB000309709F01995FF91EF91BF91AF919F91F6
:100CC0008F917F916F915F914F913F912F910F90F5
:100CD0000BBE0F900FBE0F901F9018951F920F9292
:100CE0000FB60F9211240BB60F922F933F934F9391
:100CF0005F936F937F938F939F93AF93BF93EF9384
:100D0000FF93E0912B20F0912C20309709F019955A
:100D1000FF91EF91BF91AF919F918F917F916F91D3
:100D20005F914F913F912F910F900BBE0F900FBE8F
:100D30000F901F9018951F920F920FB60F921124CB
:100D40000BB60F922F933F934F935F936F937F93C5
:100D50008F939F93AF93BF93EF93FF93E0912920DD
:100D6000F0912A20309709F01995FF91EF91BF91EA
:100D7000AF919F918F917F916F915F914F913F9133
:100D80002F910F900BBE0F900FBE0F901F901895D4
:100D90001F920F920FB60F9211240BB60F922F9342
:100DA0003F934F935F936F937F938F939F93AF93F3
:100DB000BF93EF93FF93E0912720F0912820309785
:100DC00009F01995FF91EF91BF91AF919F918F918C
:100DD0007F916F915F914F913F912F910F900BBE3B
:100DE0000F900FBE0F901F9018951F920F920FB685
:100DF0000F9211240BB60F922F933F934F935F9353
:100E00006F937F938F939F93AF93BF93EF93FF93D2
:100E1000E0912520F0912620309709F01995FF9157
:100E2000EF91BF91AF919F918F917F916F915F9162
:100E30004F913F912F910F900BBE0F900FBE0F90CF
:100E40001F9018951F920F920FB60F9211240BB698
:100E50000F922F933F934F935F936F937F938F9353
:100E60009F93AF93BF93EF93FF93E0912320F09173
:100E70002420309709F01995FF91EF91BF91AF9120
:100E80009F918F917F916F915F914F913F912F91A2
:100E90000F900BBE0F900FBE0F901F9018951F92D2
:100EA0000F920FB60F9211240BB60F922F933F9310
:100EB0004F935F936F937F938F939F93AF93BF9362
:100EC000EF93FF93E0912120F0912220309709F0D9
:100ED0001995FF91EF91BF91AF919F918F917F9164
:100EE0006F915F914F913F912F910F900BBE0F909B
:100EF0000FBE0F901F9018951F920F920FB60F9272
:100F000011240BB60F922F933F934F935F936F93E0
:100F10007F938F939F93AF93BF93EF93FF93E09152
:100F20001F20F0912020309709F01995FF91EF9143
:100F3000BF91AF919F918F917F916F915F914F91F1
:100F40003F912F910F900BBE0F900FBE0F901F90EF
:100F500018951F920F920FB60F9211240BB60F9295
:100F60002F933F934F935F936F937F938F939F93B1
:100F7000AF93BF93EF93FF93E0911D20F0911E205C
:100F8000309709F01995FF91EF91BF91AF919F9123
:100F90008F917F916F915F914F913F912F910F9022
:100FA0000BBE0F900FBE0F901F9018951F920F92BF
:100FB0000FB60F9211240BB60F922F933F934F93BE
:100FC0005F936F937F938F939F93AF93BF93EF93B1
:100FD000FF93E0911B20F0911C20309709F01995A8
:100FE000FF91EF91BF91AF919F918F917F916F9101
:100FF0005F914F913F912F910F900BBE0F900FBEBD
:101000000F901F9018951F920F920FB60F921124F8
:101010000BB60F922F933F934F935F936F937F93F2
:101020008F939F93AF93BF93EF93FF93E09119201A
:10103000F0911A20309709F01995FF91EF91BF9127
:10104000AF919F918F917F916F915F914F913F9160
:101050002F910F900BBE0F900FBE0F901F90189501
:101060001F920F920FB60F9211240BB60F922F936F
:101070003F934F935F936F937F938F939F93AF9320
:10108000BF93EF93FF93E0911720F09118203097D2
:1010900009F01995FF91EF91BF91AF919F918F91B9
:1010A0007F916F915F914F913F912F910F900BBE68
:1010B0000F900FBE0F901F9018951F920F920FB6B2
:1010C0000F9211240BB60F922F933F934F935F9380
:1010D0006F937F938F939F93AF93BF93EF93FF9300
:1010E000E0911520F0911620309709F01995FF91A5
:1010F000EF91BF91AF919F918F917F916F915F9190
:101100004F913F912F910F900BBE0F900FBE0F90FC
:101110001F9018951F920F920FB60F9211240BB6C5
:101120000F922F933F934F935F936F937F938F9380
:101130009F93AF93BF93EF93FF93E0911320F091B0
:101140001420309709F01995FF91EF91BF91AF915D
:101150009F918F917F916F915F914F913F912F91CF
:101160000F900BBE0F900FBE0F901F9018951F92FF
:101170000F920FB60F9211240BB60F922F933F933D
:101180004F935F936F937F938F939F93AF93BF938F
:10119000EF93FF93E0911120F0911220309709F026
:1011A0001995FF91EF91BF91AF919F918F917F9191
:1011B0006F915F914F913F912F910F900BBE0F90C8
:1011C0000FBE0F901F9018951F920F920FB60F929F
:1011D00011240BB60F922F933F934F935F936F930E
:1011E0007F938F939F93AF93BF93EF93FF93E09180
:1011F0000F20F0911020309709F01995FF91EF9191
:10120000BF91AF919F918F917F916F915F914F911E
:101210003F912F910F900BBE0F900FBE0F901F901C
:1012200018951F920F920FB60F9211240BB60F92C2
:101230002F933F934F935F936F937F938F939F93DE
:10124000AF93BF93EF93FF93E0910D20F0910E20A9
:10125000309709F01995FF91EF91BF91AF919F9150
:101260008F917F916F915F914F913F912F910F904F
:101270000BBE0F900FBE0F901F9018951F920F92EC
:101280000FB60F9211240BB60F922F933F934F93EB
:101290005F936F937F938F939F93AF93BF93EF93DE
:1012A000FF93E0910B20F0910C20309709F01995F5
:1012B000FF91EF91BF91AF919F918F917F916F912E
:1012C0005F914F913F912F910F900BBE0F900FBEEA
:1012D0000F901F9018951F93CF93DF931F921F922B
:1012E000CDB7DEB72FB72A83F8941A81282F392F6C
:1012F000211588E0380739F461E083E082D964E0A1
:1013000083E07FD943C0203488E0380739F462E0B5
:1013100083E077D964E083E074D938C0211589E08F
:10132000380739F461E084E06CD964E084E069D97D
:101330002DC0203489E0380739F462E084E061D9B7
:1013400064E084E05ED922C021158AE0380739F4D0
:1013500061E085E056D964E085E053D917C02034B8
:101360008AE0380739F462E085E04BD964E085E033
:1013700048D90CC021153B4039F461E086E041D9E1
:1013800064E086E03ED902C01FBF10C080915520A6
:101390008F3F09F4FFCF8FB78983F8949981E4E5F3
:1013A000F0E281818F5F81839FBF1FBF0F900F90FD
:1013B000DF91CF911F910895811528E0920729F4BC
:1013C00060935120709352200895803428E0920752
:1013D00029F460934520709346200895811529E0F3
:1013E000920729F460933D2070933E200895803445
:1013F00029E0920729F460933120709332200895F8
:1014000081152AE0920729F46093292070932A20FD
:10141000089580342AE0920729F460931D20709388
:101420001E20089581159B4021F460931520709330
:1014300016200895CF93DF93FC0120E030E0C62F03
:10144000D0E0DE01022E02C0B595A7950A94E2F71E
:10145000A0FD508B2F5F3F4F31962830310589F723
:1014600040FF0AC041FF03C0FC01658302C0FC01CC
:101470006683FC01618302C0FC016283DF91CF912E
:10148000089543E050E061E080EE97E0D3DF43E071
:1014900050E062E080EE97E0CDDF43E050E060E1B5
:1014A00080E696E0C7DF41E050E460E280E696E047
:1014B000C1DF40E05BE160E280E896E0BBDF40E056
:1014C0005BE162E080EA96E0B5DF40E05BE164E08A
:1014D00080EA96E0AFDF43E050E062E080E696E02D
:1014E000A9DF43E050E068E080E696E0A3DF43E058
:1014F00050E068E080EA96E09DDF43E050E061E084
:1015000080E696E097DF43E050E068E080E096E018
:1015100091DF41E050E060E180E896E08BDF43E05E
:1015200050E062E080E696E085DF43E050E068E06E
:1015300080E696E07FDF40E050E064E080E696E001
:1015400079DF43E050E060E180EA96E073DF40E05D
:1015500050E061E080E096E06DDF40E050E064E064
:1015600080E096E067DF40E050E062E080E296E0F5
:1015700061DF43E050E068E080E496E05BDF40E05C
:1015800050E064E080E496E055DF43E050E068E03E
:1015900080E696E04FDF40E050E064E080E696E0D1
:1015A00049DF43E050E068E080E896E043DF40E058
:1015B00050E064E080E896E03DCF089581E08093BC
:1015C00053200895E0E0F8E08485816084870895E1
:1015D0001F920F920FB60F9211240BB60F922F93FA
:1015E0003F934F935F936F937F938F939F93AF93AB
:1015F000BF93EF93FF938AE590E20E94C502FF91AB
:10160000EF91BF91AF919F918F917F916F915F917A
:101610004F913F912F910F900BBE0F900FBE0F90E7
:101620001F901895CF92DF92EF92FF920F931F9326
:10163000CF93DF937C01EB016A01122F80E090E0F1
:10164000F701E80FF91F1482019688309105C1F760
:10165000209709F403C1C03CD10529F460E180E082
:101660000E940103FBC0C03881E0D80729F462E082
:1016700080E00E940103F2C0C11581E0D80729F47F
:1016800061E080E00E940103E9C0C03883E0D80730
:1016900029F461E081E00E940103E0C0C03983E0E9
:1016A000D80729F461E082E00E940103D7C0C11588
:1016B00082E0D80729F462E081E00E940103CEC0F5
:1016C000C03482E0D80729F462E082E00E9401037E
:1016D000C5C0C03283E0D80729F464E082E00E94EC
:1016E0000103BCC0C11588E0D80729F461E083E09C
:1016F0000E940103B3C0C11589E0D80729F461E055
:1017000084E00E940103AAC0C1158AE0D80729F429
:1017100061E085E00E940103A1C0C1158BE0D807FC
:1017200029F461E086E00E94010398C0C03488E09B
:10173000D80729F462E083E00E9401038FC0C0341F
:1017400089E0D80729F462E084E00E94010386C0A2
:10175000C0348AE0D80729F462E085E00E940103E2
:101760007DC0C03988E0D80729F464E083E00E9496
:10177000010374C0C03989E0D80729F464E084E02B
:101780000E9401036BC0C0398AE0D80729F464E0E5
:1017900085E00E94010362C0C0398BE0D80729F4BC
:1017A00064E086E00E94010359C0C03C88E0D8078D
:1017B00029F468E083E00E94010350C0C03C89E046
:1017C000D80729F468E084E00E94010347C0C03ACA
:1017D00088E0D80729F460E183E00E9401033EC05D
:1017E000C03A89E0D80729F460E184E00E9401034F
:1017F00035C0C03A8AE0D80729F460E185E00E944C
:1018000001032CC0C03A8BE0D80729F460E186E0E0
:101810000E94010323C0C03B88E0D80729F460E29E
:1018200083E00E9401031AC0C03B89E0D80729F475
:1018300060E284E00E94010311C0C03884E0D80750
:1018400029F460E483E00E94010308C0C03A84E008
:10185000D80721F460E485E00E940103A601BE01DF
:10186000C7010E940502402F612FC7010E9410028C
:10187000DF91CF911F910F91FF90EF90DF90CF906C
:1018800008950E94F102FDDDE0EAF0E087E0828346
:10189000828300E820E64EED5AE060E874E08AE5D5
:1018A00090E2C0DE80E099E016DD62EE7AE080E052
:1018B00099E082DDE0E0F9E08181887F818388EE34
:1018C00093E086A397A386818C7F8683868181603F
:1018D000868378948081807F81608083A0E2B9E0F4
:1018E000EAE5F0E2C0EED7E021E08D919C911197FE
:1018F00094878587809153208823B9F384858585D3
:0C1900002F8310925320F1CFF894FFCFFA
:00000001FF
